:020000040000FA
:02000000262DAB
:040002000034003492
:080008000B19072009000B1180
:100010007E3081082E08003C03191728AF0A2F08EC
:10002000303C031D17280030AE000030AF00A30B9A
:0A00300008003C30A300A10A0800FC
:06003A0003138316880188
:1000400089010313831208000130A800282008004A
:100050008914280888000911A530A4000330A500E0
:10006000A40B3028A50B30288910A530A40003303C
:10007000A500A40B3928A50B392889140800891478
:10008000290888000915A530A4000330A500A40B99
:100090004728A50B47288910A530A4000330A500E8
:1000A000A40B5028A50B5028891408001D20891086
:1000B0000911A530A4001430A500A40B5D28A50BE0
:1000C0005D2889143830A8002820A530A400053008
:1000D000A500A40B6928A50B69283830A8002820A2
:1000E000A530A4000130A500A40B7428A50B74282A
:1000F0003830A80028200830A80028200F30A80099
:1001000028200130A80028203830A800282080307E
:10011000A80028200800031383160F3085008601ED
:100120000F30880003138312003086000800031389
:1001300083160F30850086010F3088000313831269
:10014000003086001F30A0000610081C102907216F
:10015000881C2B290721081D22290721881D192900
:10016000072106148610081C16290721881C2E2931
:100170000721081D25290721881D1C290721861410
:100180000611081C13290721881D1F290721081D96
:1001900028290721881C312907210615A2280313C5
:1001A00083160F30850086010F30880003138312F9
:1001B000003086001F30A0000610081C10290721FF
:1001C000881C2B290721081D22290721881D192990
:1001D000072106148610081C16290721881C2E29C1
:1001E0000721081D25290721881D1C2907218614A0
:1001F0000611081C13290721881D1F290721081D26
:1002000028290721881C3129072106153429A53002
:10021000A4000230A500A40B0B29A50B0B29080094
:100220003F30A00034297F30A00034290030A000E6
:1002300034290130A00034290230A00034290330D1
:10024000A00034290430A00034290530A00034294E
:100250000630A00034290730A00034290830A0005F
:1002600034290930A0003429A530A4006430A50049
:10027000A40B3829A50B382908001D200130A8003F
:1002800028208030A80028202A30A9003F202A30CA
:10029000A9003F202A30A9003F202A30A9003F2092
:1002A0002A30A9003F202A30A9003F202A30A90087
:1002B0003F202A30A9003F202A30A9003F202A30C1
:1002C000A9003F202A30A9003F202A30A9003F2062
:1002D0002A30A9003F202A30A9003F202A30A90057
:1002E0003F202A30A9003F209030A80028202A3043
:1002F000A9003F202030A9003F205230A9003F2014
:100300005530A9003F204130A9003F204E30A900C0
:100310003F202030A9003F204130A9003F205A3023
:10032000A9003F204530A9003F205630A9003F20BA
:100330004530A9003F204430A9003F204F30A9009C
:100340003F202030A9003F202A30A9003F20C030A4
:10035000A80028202A30A9003F202030A9003F20F3
:100360004A30A9003F204130A9003F204E30A9006B
:100370003F204430A9003F204530A9003F205230A3
:10038000A9003F202030A9003F205330A9003F2082
:100390004930A9003F204C30A9003F205630A90029
:1003A0003F204130A9003F202030A9003F202A30C3
:1003B000A9003F20D030A80028202A30A9003F20E3
:1003C0002A30A9003F202A30A9003F202A30A90066
:1003D0003F202A30A9003F202A30A9003F202A30A0
:1003E000A9003F202A30A9003F202A30A9003F2041
:1003F0002A30A9003F202A30A9003F202A30A90036
:100400003F202A30A9003F202A30A9003F202A306F
:10041000A9003F202A30A9003F2008001D200130FC
:10042000A80028208030A80028202A30A9003F20DA
:100430002A30A9003F202A30A9003F202A30A900F5
:100440003F202A30A9003F202A30A9003F202A302F
:10045000A9003F202A30A9003F202A30A9003F20D0
:100460002A30A9003F202A30A9003F202A30A900C5
:100470003F202A30A9003F202A30A9003F202A30FF
:10048000A9003F202A30A9003F20C030A800282022
:100490002A30A9003F202030A9003F202030A900A9
:1004A0003F202030A9003F204130A9003F2050309C
:1004B000A9003F204530A9003F205230A9003F202D
:1004C0005430A9003F204530A9003F202030A9002A
:1004D0003F203530A9003F202030A9003F202030A8
:1004E000A9003F202030A9003F202A30A9003F204A
:1004F0009030A80028202A30A9003F202030A900F1
:100500003F202030A9003F205030A9003F2041303B
:10051000A9003F205230A9003F204130A9003F20D0
:100520002030A9003F204A30A9003F204F30A900C9
:100530003F204730A9003F204130A9003F205230E2
:10054000A9003F202030A9003F202030A9003F20F3
:100550002A30A9003F20D030A80028202A30A90046
:100560003F202A30A9003F202A30A9003F202A300E
:10057000A9003F202A30A9003F202A30A9003F20AF
:100580002A30A9003F202A30A9003F202A30A900A4
:100590003F202A30A9003F202A30A9003F202A30DE
:1005A000A9003F202A30A9003F202A30A9003F207F
:1005B0002A30A9003F202A30A9003F200800031359
:1005C0008316083086008801850103138312860193
:1005D000880108002D08093C0319132B2D08083C3D
:1005E0000319202B2D08073C03192D2B2D08063C41
:1005F00003193A2B2D08053C0319472B2D08043C01
:100600000319542B2D08033C0319612B2D08023CC0
:1006100003196E2B2D08013C03197B2B2D08003C80
:100620000319882B952B2C08850067308800A5308E
:10063000A4000230A500A40B1B2BA50B1B2B952B94
:100640002C0885007F308800A530A4000230A5006A
:10065000A40B282BA50B282B952B2C0885002730C5
:100660008800A530A4000230A500A40B352BA50BF3
:10067000352B952B2C0885007D308800A530A400F3
:100680000230A500A40B422BA50B422B952B2C0866
:1006900085006D308800A530A4000230A500A40BB1
:1006A0004F2BA50B4F2B952B2C088500663088000F
:1006B000A530A4000230A500A40B5C2BA50B5C2B7D
:1006C000952B2C0885004F308800A530A4000230FF
:1006D000A500A40B692BA50B692B952B2C08850075
:1006E0005B308800A530A4000230A500A40B762B57
:1006F000A50B762B952B2C08850006308800A5309D
:10070000A4000230A500A40B832BA50B832B952BF3
:100710002C0885003F308800A530A4000230A500D9
:10072000A40B902BA50B902B952B08001D200130BE
:10073000A80028202E08013C031D852C9030A8001D
:1007400028202030A9003F202030A9003F20203061
:10075000A9003F202030A9003F202030A9003F20E1
:100760002030A9003F202030A9003F205230A900AE
:100770003F202030A9003F202030A9003F2020301A
:10078000A9003F202030A9003F202030A9003F20B1
:100790002030A9003F202030A9003F202030A900B0
:1007A0003F20D030A8002820B11BD72BD92B4030B8
:1007B000A9003F20DC2B2030A9003F200000311B86
:1007C000E22BE42B4030A9003F20E72B2030A9008A
:1007D0003F200000B11AED2BEF2B4030A9003F2045
:1007E000F22B2030A9003F200000311AF82BFA2B01
:1007F0004030A9003F20FD2B2030A9003F20000001
:10080000B119032C052C4030A9003F20082C2030C2
:10081000A9003F20000031190E2C102C4030A900F7
:100820003F20132C2030A9003F200000B118192CC4
:100830001B2C4030A9003F201E2C2030A9003F2057
:1008400000003118242C262C4030A9003F20292CF0
:100850002030A9003F200000B01B2F2C312C40304D
:10086000A9003F20342C2030A9003F200000301B7D
:100870003A2C3C2C4030A9003F203F2C2030A900CE
:100880003F200000B01A452C472C4030A9003F20E3
:100890004A2C2030A9003F200000301A502C522C46
:1008A0004030A9003F20552C2030A9003F200000F7
:1008B000B0195B2C5D2C4030A9003F20602C20300B
:1008C000A9003F2000003019662C682C4030A90098
:1008D0003F206B2C2030A9003F200000B018712C65
:1008E000732C4030A9003F20762C2030A9003F20F7
:1008F000000030187C2C7E2C4030A9003F20812C39
:100900002030A9003F200000B92CD030A8002820BA
:100910002030A9003F204030A9003F202030A9000E
:100920003F202030A9003F202030A9003F20403048
:10093000A9003F202030A9003F205230A9003F20CD
:100940002030A9003F202030A9003F202030A900FE
:100950003F202030A9003F202030A9003F20403018
:10096000A9003F202030A9003F202030A9003F20CF
:10097000B92C080003138316861081110115811408
:1009800001100313831286107E3081003C30A300D7
:100990000B118B168B17080056203D21A530A400A3
:1009A000FF30A5000430A6000130A700A40BD62C10
:1009B000A50BD62CA60BD62CA70BD62CA530A400A5
:1009C000FF30A5000430A6000130A700A40BE62CE0
:1009D000A50BE62CA60BE62CA70BE62CA530A40055
:1009E000FF30A5000430A6000130A700A40BF62CB0
:1009F000A50BF62CA60BF62CA70BF62CA530A40005
:100A0000FF30A5000430A6000130A700A40B062D7E
:100A1000A50B062DA60B062DA70B062DA530A400B1
:100A2000FF30A5000430A6000130A700A40B162D4E
:100A3000A50B162DA60B162DA70B162D0800DF22D1
:100A40002030AC002108AD00EA220800CC24BA24F2
:100A50002208013C0319452D0E228B20CF202008AF
:100A60001F3C03192E2D0130A200A530A400FA303E
:100A7000A500A40B392DA50B392DA530A400FA3003
:100A8000A500A40B412DA50B412DCF2020081F3C14
:0C0A900003194C2D0130AE009623282DD8
:02400E003B3F36
:00000001FF
